:100000000C9446050C9417150C94F0140C946E0582
:100010000C946E050C946E050C946E050C946E0594
:100020000C946E050C946E050C946E050C946E0584
:100030000C946E050C946E050C946E050C946E0574
:100040000C94A6140C946E050C946E050C946E051D
:100050000C946E050C946E050C946E050C946E0554
:100060000C943E150C946E05000103070F1F3F7F93
:100070000080C0E0F0F8FCFE00000000003E5B4F96
:100080005B3E3E6B4F6B3E1C3E7C3E1C183C7E3CF8
:10009000181C577D571C1C5E7F5E1C00183C180006
:1000A000FFE7C3E7FF0018241800FFE7DBE7FF3096
:1000B000483A060E2629792926407F050507407F04
:1000C00005253F5A3CE73C5A7F3E1C1C08081C1C77
:1000D0003E7F14227F22145F5F005F5F06097F016D
:1000E0007F006689956A606060606094A2FFA29458
:1000F00008047E040810207E201008082A1C080826
:100100001C2A08081E101010100C1E0C1E0C303873
:100110003E3830060E3E0E06000000000000005F74
:1001200000000007000700147F147F14242A7F2A90
:100130001223130864623649562050000807030052
:10014000001C2241000041221C002A1C7F1C2A089E
:10015000083E080800807030000808080808000001
:1001600060600020100804023E5149453E00427F75
:10017000400072494949462141494D331814127FC4
:100180001027454545393C4A494931412111090764
:100190003649494936464949291E000014000000E5
:1001A00040340000000814224114141414140041B7
:1001B00022140802015909063E415D594E7C121174
:1001C000127C7F494949363E414141227F414141AC
:1001D0003E7F494949417F090909013E4141517327
:1001E0007F0808087F00417F41002040413F017F98
:1001F000081422417F404040407F021C027F7F0460
:1002000008107F3E4141413E7F090909063E4151A8
:10021000215E7F09192946264949493203017F0198
:10022000033F4040403F1F2040201F3F4038403F99
:10023000631408146303047804036159494D4300AF
:100240007F4141410204081020004141417F0402E6
:10025000010204404040404000030708002054547D
:1002600078407F284444383844444428384444285B
:100270007F385454541800087E090218A4A49C78AE
:100280007F0804047800447D40002040403D007F0A
:100290001028440000417F40007C047804787C08EA
:1002A0000404783844444438FC18242418182424BE
:1002B00018FC7C08040408485454542404043F44A3
:1002C000243C4040207C1C2040201C3C4030403CD2
:1002D00044281028444C9090907C4464544C440032
:1002E0000836410000007700000041360800020196
:1002F0000204023C2623263C1EA1A161123A404082
:10030000207A3854545559215555794122545478FE
:1003100042215554784020545579400C1E52721297
:100320003955555559395454545939555454580020
:1003300000457C410002457D420001457C407D1224
:1003400011127DF0282528F07C5455450020545486
:100350007C547C0A097F4932494949323A44444431
:100360003A324A4848303A4141217A3A424020786C
:10037000009DA0A07D3D4242423D3D4040403D3C6D
:1003800024FF2424487E4943662B2FFC2F2BFF0992
:1003900029F620C0887E0903205454794100004486
:1003A0007D413048484A32384040227A007A0A0A71
:1003B000727D0D19317D2629292F282629292926E4
:1003C00030484D4020380808080808080808382F29
:1003D00010C8ACBA2F102834FA00007B00000814B3
:1003E0002A142222142A14085500550055AA55AA89
:1003F00055AAFF55FF55FF000000FF00101010FF29
:1004000000141414FF001010FF00FF1010F010F083
:10041000141414FC001414F700FF0000FF00FF1474
:1004200014F404FC141417101F10101F101F1414C0
:10043000141F00101010F0000000001F101010100A
:100440001F10101010F010000000FF1010101010FE
:1004500010101010FF10000000FF140000FF00FF3C
:1004600000001F10170000FC04F4141417101714D8
:1004700014F404F40000FF00F714141414141414FA
:10048000F700F7141414171410101F101F1414146D
:10049000F4141010F010F000001F101F0000001FD7
:1004A00014000000FC140000F010F01010FF10FF0A
:1004B000141414FF141010101F00000000F010FF9F
:1004C000FFFFFFFFF0F0F0F0F0FFFFFF0000000083
:1004D00000FFFF0F0F0F0F0F3844443844FC4A4A07
:1004E0004A347E02020606027E027E0263554941BC
:1004F000633844443C04407E201E2006027E0202F3
:1005000099A5E7A5991C2A492A1C4C7201724C3006
:100510004A4D4D303048784830BC625A463D3E49DD
:100520004949007E0101017E2A2A2A2A2A44445F81
:10053000444440514A444040444A51400000FF0175
:1005400003E080FF000008086B6B08361236243683
:10055000060F090F060000181800000010100030E8
:1005600040FF0101001F01011E00191D1712003C70
:100570003C3C3C0000000000DB40A4A62EAF200065
:10058000A1C8D300408DAED580A800006000000057
:100590000000000000000000000000E0000000007B
:1005A00000000000000000000001E000000000006A
:1005B000000000000000000001F00000000000004A
:1005C0000000000000000003F00000000000000038
:1005D00000000000000007F0000000000000000024
:1005E000000000000007F80000000000000000000C
:1005F000000000000FF800000003C0007E000001B2
:10060000E0007F0FF800000003C000FE000001E0E2
:1006100000FFEFF800000003C000FE000001E00052
:10062000FFFFF800000003C000F00000000F007F93
:10063000FE7FC0000003C000F00000000F003FFE7E
:100640007FF83FF1FBCFFCFEF3BC3DEFE01FFE7FE8
:10065000FF7FFBFFDFFEFEFFBC3DEFE01FC6FFFF9D
:100660007FFBFFDFFEFEFFBC3DEFE00FE3C7FE7840
:100670007BC3DE1EF0FFBC3DEF0007FF87FC787BED
:10068000C3DE1EF0F83C3DEF0001FFFFF0007BC32E
:10069000C01EF0F03C3DEF0001F37FE03FFBC3CF15
:1006A000FEF0F03C3DEF0003E33F807FFBC3DFFE45
:1006B000F0F03C3DEF0007E73C00787BC3DE1EF026
:1006C000F03C3DEF0007FFBE00787BC3DE1EF0F07C
:1006D0003C3DEF0007FFFE00787BC3DE1EF0F03CE0
:1006E0003DEF000FFFFE007FFBFFDFFEF0F03FFD60
:1006F000EFE00FFFFF007FFBFFDFFEF0F03FFDEFBD
:10070000E00FF9FF003E79F9CF9EF0F01F3DE7E0E2
:100710001FF1FF0000000000000000000000001FAB
:1007200080FF007FFFFFFFFFFFFFFFFFFFE01C00D8
:100730007F007FFFFFFFFEB46D888D18E000001F73
:10074000007FFFFFFFFE95AD7DB577E000000F0055
:100750007FFFFFFFFEA5AD9D8D19E0000006007F25
:10076000FFFFFFFEB5ADEDB57EE00000000000012B
:100770008000000000000000000003800000000076
:10078000000000000007C0000000000000000000A2
:1007900007C00000000000000000000FC0000000C3
:1007A0000000000000001FE000000000000000004A
:1007B000001FE00000000000000000003FE000001B
:1007C000000000000000003FF000000000000000FA
:1007D00000007FF0000000000000001FF87FF00024
:1007E0000000000000003FFE7FF00000000000005D
:1007F000003FFF7FF0000000000000001FFFFBE053
:10080000000000000000000FFFF9FFC00000000022
:1008100000000FFFF9FFF800000000000007FFF1E3
:10082000FFFF00000000000003FC73FFFF800000DA
:1008300000000001FE3FFFFF80000000000000FFFD
:100840001E0FFF000000000000007FFE1FFC0000E4
:1008500000000000003FFFFFF80000000000000063
:100860000FDFFFE0000000000000001F19FFC000C4
:100870000000000000003F3CFF00000000000000FE
:10088000007E7CF800000000000000007FFE7C007D
:1008900000000000000000FFFFFC0000000000005E
:1008A0000000FFFFFE0000000000000000FFFFFE50
:1008B0000000000000000001FFEFFE00000000004B
:1008C000000001FFCFFE0000000000000003FF0752
:1008D000FE0000000000000003FC07FE0000000016
:1008E00000000003F003FE00000000000000018093
:1008F00000FE000000000000000000007E0000007C
:10090000000000000000003E0000000000000000A9
:1009100000000C000000000000078000FC00000345
:10092000C0000000078001FC000003C000000007B9
:100930008001FC000003C0000000078001E000000F
:10094000001E000000078001E00000001E007FE3A1
:10095000F79FF9FDE7787BDFC0FFF7FFBFFDFDFFE5
:10096000787BDFC0FFF7FFBFFDFDFF787BDFC0F0C6
:10097000F787BC3DE1FF787BDE00F0F787BC3DE107
:10098000F0787BDE0000F787803DE1E0787BDE00D9
:100990007FF7879FFDE1E0787BDE00FFF787BFFDF3
:1009A000E1E0787BDE00F0F787BC3DE1E0787BDEBC
:1009B00000F0F787BC3DE1E0787BDE00F0F787BC14
:1009C0003DE1E0787BDE00FFF7FFBFFDE1E07FFB6C
:1009D000DFC0FFF7FFBFFDE1E07FFBDFC07CF3F38B
:1009E0009F3DE1E03E7BCFC0000000000000000022
:1009F000000000FFFFFFFFFFFFFFFFFFFFC0FFFF43
:100A0000FFFFFD68DB111A31C0FFFFFFFFFD2B5A0E
:100A1000FB6AEFC0FFFFFFFFFD4B5B3B1A33C0FFDC
:100A2000FFFFFFFD6B5BDB6AFDC0000000002400E0
:100A300027002A0000000000250028002B000000ED
:100A4000000800020100000304070000000000008D
:100A500000002200FF210102040810204080010252
:100A600004081020010204081020000000002300E8
:100A700026002900040404040404040402020202FF
:100A800002020303030303035D167D1C11241FBE32
:100A9000CFEFD8E0DEBFCDBF11E0A0E0B1E0EEE7E0
:100AA000FCE302C005900D92A83AB107D9F722E005
:100AB000A8EAB1E001C01D92AF3DB207E1F715E031
:100AC000C5E4D5E004C02197FE010E94EC1CC434AB
:100AD000D107C9F70E945E170C94321E0C940000D7
:100AE0000895833081F028F4813099F08230A9F0A4
:100AF00008958730A9F08830C9F08430B1F480912E
:100B000080008F7D03C0809180008F77809380006C
:100B1000089584B58F7784BD089584B58F7DFBCF0C
:100B20008091B0008F778093B00008958091B000DD
:100B30008F7DF9CF1F93CF93DF93282F30E0F901FA
:100B4000E25CF54F8491F901EA5AF54FD491F9012D
:100B5000EC58F54FC491CC23A9F0162F81110E94B7
:100B60007105EC2FF0E0EE0FFF1FEC5CF54FA59147
:100B7000B4918FB7F894EC91111108C0D095DE2391
:100B8000DC938FBFDF91CF911F910895DE2BF8CFBB
:100B9000CF93DF9390E0FC01EA5AF54F24918C58F3
:100BA000954FFC0184918823D1F090E0880F991F24
:100BB000FC01E65DF54FA591B491FC01EC5CF54FAD
:100BC000C591D491623071F49FB7F8943C91822F13
:100BD000809583238C93E8812E2B28839FBFDF9100
:100BE000CF9108958FB7F894EC912E2B2C938FBF53
:100BF000F6CF3FB7F8948091770290917802A09158
:100C00007902B0917A0226B5A89B05C02F3F19F052
:100C10000196A11DB11D3FBFBA2FA92F982F88277C
:100C2000BC01CD01620F711D811D911D42E0660F57
:100C3000771F881F991F4A95D1F708958F929F9229
:100C4000AF92BF92CF92DF92EF92FF924B015C0185
:100C50000E94F9056B017C010E94F9056C197D0960
:100C60008E099F09683E734081059105A8F321E034
:100C7000821A9108A108B10888EEC80E83E0D81E38
:100C8000E11CF11C81149104A104B10429F7FF9027
:100C9000EF90DF90CF90BF90AF909F908F9008958E
:100CA000089508950895AF92BF92CF92DF92EF9288
:100CB000FF920F931F93CF93DF936C017B018B0106
:100CC000040F151FEB015E01AE18BF08C017D10756
:100CD00059F06991D601ED91FC910190F081E02DE0
:100CE000C6010995892B79F7C501DF91CF911F9135
:100CF0000F91FF90EF90DF90CF90BF90AF9008954D
:100D00000895FC016370668B84819581268137810B
:100D1000613039F0633029F09187808733872287EB
:100D20000895318720879387828708952F923F9275
:100D30004F925F926F927F928F929F92AF92BF92EB
:100D4000CF92DF92EF92FF920F931F93CF93DF9397
:100D5000CDB7DEB76A970FB6F894DEBF0FBECDBF32
:100D60009A8F898F7A8369834A01D22E18870F83DD
:100D70003701BC2CDC0159962D913C915A972115D5
:100D8000310509F015C118968D919C911997681736
:100D900079070CF0D7C11A968D919C914817590785
:100DA0000CF0D0C14C2C512CB6E0CB9E600D711DC7
:100DB00011247C876B87161617060CF0C3C1EA2D29
:100DC000F0E0FA87E98793E0EE0FFF1F9A95E1F7CD
:100DD000F88BEF87CF01840F951F181619060CF0BA
:100DE000B1C1A98DBA8D58968C91811104C0BFEA0A
:100DF000BD1508F4D394A98DBA8DED91FC9111978E
:100E00000284F385E02DCD010995B5E0DB9EC0019C
:100E10001124E981FA81FC83EB83312C212C9C0184
:100E200028583F4F388F2F8B4A2D50E05E8B4D8BCB
:100E3000EF89F88DE20DF31D44919E828D82D12CB5
:100E4000C12C69817A81620D731D7A8B698B842F25
:100E500090E09C8B8B8BE98DFA8DA081B18140FF56
:100E600082C0F1E0BF126FC0AF126DC01C96ED9151
:100E7000FC912F813885A4014C0D5D1D69897A890B
:100E8000898D9A8D0995EB89FC89F595E7954E2F0B
:100E90005FEFC51AD50A6D817E818D899E89680FA5
:100EA000791F7E836D8398E0C916D10481F6AFEF78
:100EB0002A1A3A0AEB81FC81E40DF51DFC83EB83D1
:100EC000F5E02F16310409F0B3CF2F8138852615B0
:100ED0003705B9F0A98DBA8DED91FC91B1E0BB1247
:100EE00057C0AB1255C069817A816B5F7F4F008814
:100EF000F189E02D830128E030E0A401898D9A8DED
:100F00000995A98DBA8DED91FC9111970688F78905
:100F1000E02DCD016A960FB6F894DEBF0FBECDBFAF
:100F2000DF91CF911F910F91FF90EF90DF90CF90C5
:100F3000BF90AF909F908F907F906F905F904F90F9
:100F40003F902F9009941E96ED91FC91EF80F884CC
:100F500009851A8592014D815E816B817C81898D25
:100F60009A8D099590CF2F8138852615370509F47C
:100F70008ACF31E0B31207C0A31205C01C96ED91D1
:100F8000FC91930178CF1E96ED91FC917301E0CF17
:100F90006B857C85641975090684F785E02D7301DE
:100FA0000F8518899201A401898D9A8D0995A9CF81
:100FB000F90134969491329745915491D91AB7E03A
:100FC000DB9E400D511D1124F901259134913C8B7C
:100FD0002B8BFA0125903490FA0132967490319659
:100FE0003491398B329664903196449041E04C159F
:100FF00018F04A1508F07FC0662D062C000C770B00
:101000007C836B83842D042C000C990B9E838D8331
:10101000A98DBA8DED91FC9111970284F385E02D95
:10102000CD010995512CD12CC12CEA2DF0E0FA8785
:10103000E9872B2D30E03C872B87A401440D511DFF
:1010400047FC5A95588F4F8B69817A81660D711DC7
:1010500067FC7A957E876D877989C71608F051CF2E
:101060002C2D30E04D815E81420F531FA985BA853A
:101070004A9FC0014B9F900D5A9F900D1124FC0177
:10108000E80DF91DF88BEF87852D612C4F89588D60
:10109000420F531F5E8B4D8B671408F050C04424E1
:1010A0004394480E877041F4C1010196EB89FC8995
:1010B000E20DF31DD4901C01D7FE19C0A98DBA8D85
:1010C000ED91FC91662D70E0B1E0BB1219C0AB123E
:1010D00017C02D853E85620F731F0484F585E02DB2
:1010E0002F8138854D895E89898D9A8D0995DD0C12
:1010F0006394842DD1CF1E821D821C821B8288CFD7
:101100004B815C81640F751FAB85BC856A9FC001F4
:101110006B9F900D7A9F900D112469817A81680FE1
:10112000791F0684F785E02DEF80F88409851A85FC
:101130009D014F855889898D9A8D0995D8CF570C77
:10114000C3948ACF6A960FB6F894DEBF0FBECDBFA8
:10115000DF91CF911F910F91FF90EF90DF90CF9093
:10116000BF90AF909F908F907F906F905F904F90C7
:101170003F902F9008958F929F92AF92CF92EF92CF
:10118000FF920F931F93CF93DF93EC01262F898D4E
:101190009A8D009709F051C06A30D1F41D861C86E3
:1011A0008D8948E0849F900111248E859F85820F50
:1011B000931F9F878E8781E090E0DF91CF911F91F1
:1011C0000F91FF90EF90CF90AF909F908F900895E8
:1011D0006D3089F3CC88AD888F898823C1F08C85E8
:1011E0009D8536E0C39E800D911D1124488559854B
:1011F0004817590764F44E855F851D861C8638E0C4
:10120000A39EC0011124840F951F9F878E87EA88B3
:10121000FB88088919894E855F856C857D85CE019F
:101220000E9496062C898C859D8546E0249F800D22
:10123000911D11249D878C87BECF6A3069F41D866D
:101240001C86FC013896E4912D898E859F85E29F4E
:10125000800D911D1124ADCF6D3009F4ACCFFC0190
:1012600034963491631708F4A6CF3296E491E617CA
:1012700008F4A1CFFC01329685909490462F431B31
:10128000342F47E0349F800C911C1124F4013296D6
:1012900034913196E4913323A9F1EE2399F1CC886E
:1012A000F4013596E491AD884F89442301F10E2E67
:1012B000000CFF0BE30FF11DCE9EA001CF9E500D41
:1012C00011246C857D85460F571F688579856417C5
:1012D00075076CF44E855F851D861C86FC0138966B
:1012E000E491AE9E400D511D11245F874E87EA8820
:1012F000FB88088919894E855F856C857D85CE01BF
:101300000E949606F4013496E4912C898C859D8583
:10131000E29F800D911D11248DCF682F8BE992E003
:101320000C94BB086F927F928F929F92AF92BF9264
:10133000CF92DF92EF92FF920F931F93CF93DF93A1
:10134000EC016B015A0139014801E881F9810284FD
:10135000F385E02D0995E881F9810288F389E02D74
:1013600087019301A501B601CE010995A501480D9C
:10137000591D41505109E881F9810288F389E02D16
:101380009301B601CE010995E881F9810088F189C0
:10139000E02D9401A501B601CE010995C60CD71C1C
:1013A000B60161507109E881F9810088F189E02D69
:1013B0009401A501CE010995E881F9810688F78994
:1013C000E02DCE01DF91CF911F910F91FF90EF9013
:1013D000DF90CF90BF90AF909F908F907F906F9055
:1013E00009946F927F928F929F92AF92BF92CF9209
:1013F000DF92EF92FF920F931F93CF93DF935C01E5
:10140000EB016A01490138018701DC01ED91FC9192
:101410006217730719F5641675062CF0962D872D43
:101420003A01C92ED82E9601261937092F5F3F4F52
:10143000048CF58DE02DA301BE01C5010995DF9156
:10144000CF911F910F91FF90EF90DF90CF90BF90C1
:10145000AF909F908F907F906F900895461557059D
:1014600091F42617370724F0892D4B01C22FD82F6E
:101470009E01281939092F5F3F4F068CF78DE02D0B
:10148000A601B401DACF0284F385E02D0995D501D8
:10149000ED91FC910488F589E02D83019401A6016A
:1014A000BE01C5010995D501ED91FC910688F7892A
:1014B000E02DC501DF91CF911F910F91FF90EF902B
:1014C000DF90CF90BF90AF909F908F907F906F9064
:1014D0000994EF92FF920F931F93DC011A960D91DE
:1014E0001C911B9718962D913C911997ED91FC91A9
:1014F00000A0F1A1E02D7B0150E040E070E060E051
:1015000009951F910F91FF90EF9008954F925F9270
:101510006F927F928F929F92AF92BF92CF92DF9203
:10152000EF92FF920F931F93CF93DF936C012B01E8
:101530005A0139014801DC01ED91FC910284F385E7
:10154000E02D0995E201640C751CD601ED91FC912A
:10155000C615D7055CF40088F189E02D8701940158
:10156000A501BE01C60109952196EFCF0688F7892E
:10157000E02DC601DF91CF911F910F91FF90EF9069
:10158000DF90CF90BF90AF909F908F907F906F90A3
:101590005F904F9009948F929F92AF92BF92CF929B
:1015A000DF92EF92FF920F931F93CF93DF93EC01A3
:1015B0005B014A016901E881F9810284F385E02D2C
:1015C000099595012C0D3D1D21503109E881F981C6
:1015D0000488F589E02D78018401A401B501CE01CC
:1015E0000995E881F9810688F789E02DCE01DF9120
:1015F000CF911F910F91FF90EF90DF90CF90BF9010
:10160000AF909F908F9009948F929F92AF92BF92CC
:10161000CF92DF92EF92FF920F931F93CF93DF93BE
:10162000EC015B014A0169017801E881F9810284DA
:10163000F385E02D0995C80CD91C860101501109CC
:10164000E881F9810488F589E02D9501A401B501AF
:10165000CE010995E881F9810688F789E02DCE0150
:10166000DF91CF911F910F91FF90EF90DF90CF907E
:10167000BF90AF909F908F900994EF92FF920F933D
:101680001F93DC01ED91FC9100A0F1A1E02D0995E3
:101690001F910F91FF90EF9008950F931F93DC011E
:1016A000ED91FC91068CF78DE02D09951F910F911E
:1016B00008950F931F93DC01ED91FC91048CF58D3F
:1016C000E02D09951F910F910895DC01ED91FC919A
:1016D0000084F185E02D09943F924F925F926F92C2
:1016E0007F928F929F92AF92BF92CF92DF92EF92B2
:1016F000FF920F931F93CF93DF935C017B014A010D
:101700006901390187E0680E711C93E07594679454
:101710009A95E1F72B01400E511E10E000E0312CAC
:10172000D0E0C0E0CE0187709927330C892B59F4A3
:10173000FE0183E0F595E7958A95E1F7E00FF11F4B
:10174000E80DF91D349037FE0AC021E030E0A70112
:10175000B5016C0F7D1F8BE992E00E94650B21960D
:10176000CC16DD06F9F68FEFE81AF80A060D171DFC
:10177000E414F504A9F6DF91CF911F910F91FF902A
:10178000EF90DF90CF90BF90AF909F908F907F9021
:101790006F905F904F903F9008952F923F924F929D
:1017A0005F926F927F928F929F92AF92BF92CF92F1
:1017B000DF92EF92FF920F931F93CF93DF9300D0AE
:1017C00000D000D0CDB7DEB73C016A013E832D8347
:1017D000FC82EB825801A41AB50AB7FE03C0B1948B
:1017E000A194B1088D809E80861A970A97FE03C047
:1017F0009194819491088A149B045CF0902F812F1E
:101800000D811E819D838E839C2D8D2D6B01692FF3
:10181000782F0C151D055CF09D818E817E836D8374
:10182000692F782F902F812F8601C92ED82E16016F
:10183000201A310A2B012D813E81421A530A57FE8C
:1018400003C0519441945108710137FE03C03FEF2A
:10185000E31AF30AF594E7948D819E818617970722
:101860005CF5A1E0B0E0BA83A983C016D1064CF1C3
:10187000D301ED91FC910484F585E02D2B813C8111
:10188000A8016D817E818A149B041CF04D815E81CC
:10189000B801C3010995E418F508F7FE0AC02D81C7
:1018A0003E8189819A81280F391F3E832D83E20C66
:1018B000F31C0F5F1F4FD9CF2FEF3FEF3A832983E0
:1018C000D4CF26960FB6F894DEBF0FBECDBFDF9102
:1018D000CF911F910F91FF90EF90DF90CF90BF902D
:1018E000AF909F908F907F906F905F904F903F90C0
:1018F0002F900895EF92FF920F931F93CF93DF9352
:10190000EC01EC80FD806E157F050CF070C057FF78
:1019100004C0240F351F50E040E08E819F81FA0102
:10192000E20FF31F8E179F071CF49C01241B350B3D
:10193000121613060CF05BC0922F842F86958695A5
:1019400086958E9DD0018F9DB00D11246A0F7B1F4F
:10195000AF8DB8A1A60FB71F477049F188E0841B6F
:10196000482F682F70E0FB01E059FF4FE4912817E2
:1019700008F063C0621B71092FEF30E002C035959B
:1019800027956A95E2F7E2230130110539F0B0F1AD
:101990000230110561F58C91E82702C08C91E82B8B
:1019A000EC93941720F12C813D81A20FB31FE92FF6
:1019B000E41BE83078F00230110521F58E2F9C9160
:1019C00090959C932C813D81A20FB31F8850883045
:1019D000B0F7E770EE2359F0F0E0E859FF4FE491DB
:1019E00001301105F9F010F10230110519F1DF9104
:1019F000CF911F910F91FF90EF900895E0958C91FA
:101A0000E823CECF81E00115110509F480E081952E
:101A10009E2F8C932C813D81A20FB31F985098303C
:101A2000C0F7D7CF8C91E82BEC93E1CFE0958C9168
:101A3000E823FACF8C91E827F7CF0130110509F49C
:101A4000ADCFE0F20230110509F4A5CFAE0DBF1DF8
:101A5000AECF0F931F93CF93DF9377FF04C0260F72
:101A6000371F70E060E0DC011496CD91DC91FB0142
:101A7000E20FF31FCE17DF071CF49E01261B370B66
:101A8000121613064CF5FA0157FD3796A3E0F595AB
:101A9000E795AA95E1F7EC9FD001ED9FB00DFC9F73
:101AA000B00D11246A0F7B1FDC015F96ED91FC9154
:101AB000E60FF71F4770552781E090E001C0880FBF
:101AC0004A95EAF7482F0130110559F0A8F02E0F7A
:101AD0003F1F02301105E1F0DF91CF911F910F916F
:101AE00008952E0F3F1FE217F307B1F38191DF0135
:101AF0001197842B8C93F7CF80952E0F3F1FE21701
:101B0000F30751F39191DF01119798239C93F7CF3D
:101B1000E217F30709F38191DF01119784278C9372
:101B2000F7CF0F931F93FA01DC0156964C9156970D
:101B30004230E9F04330A1F1413061F514964D9106
:101B40005C91DA01AE1BBF0BFD01E21BF30B77FDCD
:101B50000BC0DC0116964D915C916417750724F457
:101B6000AB01BF010E94290D1F910F91089514969A
:101B70004D915C91DA01A61BB70BBD016150710953
:101B8000DC0116964D915C91DA01AE1BBF0BFD0195
:101B9000E21BF30B77FDE8CFAF010E947A0CE4CF94
:101BA00016964D915C91DA01A61BB70BBD016150F1
:101BB0007109CDCF0F931F93FA01DC0156964C911A
:101BC00056974230A9F0433091F1413019F51496FF
:101BD0004D915C91DA01AE1BBF0BFD013197F7FD12
:101BE00004C0AB01BF010E947A0C1F910F910895B0
:101BF00014964D915C91DA01A61BB70BBD01DC0177
:101C000016964D915C91DA01AE1BBF0BFD01319729
:101C1000621B730BF7FDE9CFDC0116964D915C91C9
:101C2000E417F50714F7AF010E94290DDECF1696D1
:101C30004D915C91DA01A61BB70BBD01621B730BC2
:101C4000CECFFC0177FD64C0808591856817790748
:101C50000CF05EC057FD5CC082859385481759071C
:101C60000CF056C086898230B1F0833029F1813082
:101C700041F484819581841B950BAB01BC016150BB
:101C800071092130310509F108F443C022303105D2
:101C900009F463C0089584819581DC01A61BB70B0C
:101CA000BD016150710986819781DC01A41BB50BD0
:101CB000AD0141505109E5CF86819781861B970B75
:101CC000BA01AC0141505109DCCFCA0157FD07965A
:101CD000A3E095958795AA95E1F7A481B5818A9FA0
:101CE00090018B9F300D9A9F300D1124620F731F4E
:101CF000078CF0A1E02DE60FF71F4770552721E074
:101D000030E001C0220F4A95EAF78081822B808360
:101D10000895CA0157FD079633E0959587953A9542
:101D2000E1F7A481B5818A9F90018B9F300D9A9F26
:101D3000300D1124620F731F078CF0A1E02DE60F08
:101D4000F71F4770552781E090E001C0880F4A9542
:101D5000EAF7809590818923DACFCA0157FD07966B
:101D600023E0959587952A95E1F7A481B5818A9F0F
:101D700090018B9F300D9A9F300D1124620F731FBD
:101D8000078CF0A1E02DE60FF71F4770552721E0E3
:101D900030E001C0220F4A95EAF780818227B7CF51
:101DA00008958EBD00000DB407FEFDCF8EB50895D9
:101DB0008CBD9DBD0895089520910E02260F3327F6
:101DC000331F21323105ECF420913202FC0190E006
:101DD00080E0243069F082E00895A0910E02219104
:101DE000AC0142515E4FA40FB52FB11D2C9301964B
:101DF000861798F380910E02680F60930E0280E0C0
:101E0000089581E008951092320281E080933402B7
:101E10001092330261E082E10E949A0561E083E161
:101E20000E949A05E9EBF0E080818E7F80838081BB
:101E30008D7F808388E48093B80085E48093BC0024
:101E40000895CF93DF9391E09093ED018823B9F04B
:101E5000C091B800D091BA008091BC008A7B809379
:101E6000BC0060E082E10E949A0560E083E10E948C
:101E70009A050E94030FD093BA00C093B800DF9177
:101E8000CF910895E0915E0280915D02E81730F4F1
:101E9000F0E0E853FE4F808190E008958FEF9FEFD0
:101EA000089590915E0280915D022FEF3FEF9817A9
:101EB00048F4E92FF0E0E853FE4F208130E09F5FC7
:101EC00090935E02C901089580915D0290915E0237
:101ED000891B990B0895CF92DF92EF92FF920F9397
:101EE0001F93CF93DF937C01CB018A0120917E0267
:101EF000222389F0EB016B01C40ED51ECC15DD0544
:101F000069F06991D701ED91FC910190F081E02D8C
:101F1000C7010995F3CF642F0E94DC0EC801DF9141
:101F2000CF911F910F91FF90EF90DF90CF90089588
:101F3000CF93DF931F92CDB7DEB7698320917E02E6
:101F40002223F9F020917B02203258F021E030E08A
:101F5000FC013383228390E080E00F90DF91CF91EA
:101F6000089580917C02E82FF0E0E855FE4F9981BA
:101F700090838F5F80937C0280937B0281E090E06E
:101F8000ECCF61E0CE0101960E94DC0EF7CFCF923C
:101F9000DF92EF92FF920F931F93CF93DF93D09135
:101FA0007B0281E0D13208F09CC0C0917D020E948A
:101FB000F9056B017C018091320281116CC082E0D5
:101FC0008093320281E0809334028FEF809331025C
:101FD00010925602D0935502A8EAB1E0E5E3F2E090
:101FE00080E0D8138DC01092570280915702CC0F19
:101FF000C82BC093570280913302813009F084C00E
:10200000109233020E94F9056B017C018091570206
:102010008093BB008091E9019091EA01A091EB01CE
:10202000B091EC01892B8A2B8B2BA1F00E94F90532
:102030000091E9011091EA012091EB013091EC014E
:102040006C197D098E099F0906171707280739079C
:1020500008F442C08091BC0083FDD8CF85EC80930A
:10206000BC000E94F9056B017C0180913202823034
:1020700009F44CC0809131028F3F09F469C080910E
:102080003102803209F466C080913102803309F454
:1020900063C084E026C08091E9019091EA01A0919B
:1020A000EB01B091EC01892B8A2B8B2B09F483CFA8
:1020B0000E94F9050091E9011091EA012091EB01DC
:1020C0003091EC016C197D098E099F0906171707DD
:1020D0002807390708F06FCF8091E8010E94210F8F
:1020E00085E010927C0210927B0210927E02DF91BA
:1020F000CF911F910F91FF90EF90DF90CF900895B7
:102100009D9191938F5F6DCF85EEA9CF8091E9016D
:102110009091EA01A091EB01B091EC01892B8A2BFF
:102120008B2B09F4A2CF0E94F9050091E9011091CF
:10213000EA012091EB013091EC016C197D098E09C7
:102140009F09061717072807390708F08ECFC4CF55
:1021500080E0C7CF82E0C5CF83E0C3CFEF92FF928C
:102160000F931F93CF93DF937C01C62F8091B8020A
:102170009091B902009709F459C02091BC0231E056
:1021800030937E0220937D0210927C0210927B029B
:10219000DC01ED91FC910190F081E02D60E009956A
:1021A0008701EE24E394F12CD1E0C1508091B80274
:1021B0009091B902CF3F91F1B0E2EB16F104D8F063
:1021C0000E94C70F8091B8029091B9022091BC0281
:1021D000D0937E0220937D0210927C0210927B02AB
:1021E000DC01ED91FC910190F081E02D60E009951A
:1021F000EE24E394F12C8091B8029091B902F80199
:102200006491DC01ED91FC910190F081E02D099544
:10221000BFEFEB1AFB0A0F5F1F4FC7CFDF91CF91C4
:102220001F910F91FF90EF900C94C70FE091C8029F
:10223000F091C90290818091CE028095892380839C
:102240008701C15008F438C0F80184912091B6028A
:102250003091B702232B29F00E94D10E0F5F1F4F40
:10226000F0CF28E030E040E8E091C402F091C502F0
:102270009091CC02582F5423D9F05081952B908304
:10228000E091C602F091C70290815091CD02952B4A
:102290009083E091C602F091C70250819091CD02E7
:1022A000909595239083469521503109E9F6D6CF34
:1022B000508190959523E3CFDF91CF911F910F919E
:1022C000FF90EF9008951F93CF93DF93EC018D8DD6
:1022D0009E8D009721F1162F29A131E030937E02C7
:1022E00020937D0210927C0210927B02DC01ED9122
:1022F000FC910190F081E02D60E009958D8D9E8D1F
:10230000DC01ED91FC910190F081E02D612F0995A8
:102310008D8D9E8DDF91CF911F910C94C70FADA530
:10232000BEA59C918BA9809589238C938B8D9C8DC8
:10233000892B31F0862FDF91CF911F910C94D10E14
:1023400028E030E080E8A9A5BAA599A9462F48233E
:10235000C1F04C91942B9C93ABA5BCA59C914AA930
:10236000942B9C93ABA5BCA54C919AA990959423D2
:102370009C9386952150310931F7DF91CF911F91C0
:1023800008954C9190959423E6CFDF92EF92FF92BF
:102390000F931F93CF93DF938091B8029091B9026E
:1023A000892B09F4A5C02091D0023091D10240912F
:1023B000D2025091D30260E074E284EF90E00E9478
:1023C000A01C20513109410951095695479537956F
:1023D00027952093B80064E082E59AE00E94AE1051
:1023E00080919F029091A0028034910509F097C0DE
:1023F00060E28BE992E00E94631160919F02615E4E
:102400008BE992E00E9463112091A1023091A20217
:10241000C901079697FD079633E0959587953A95FC
:10242000E1F720919F023091A002829F8001839F5B
:10243000100D929F100D1124C091BA02D091BB02D1
:102440008091B8029091B9020C0F1D1F009709F4FA
:1024500098C02091BC0231E030937E0220937D022F
:1024600010927C0210927B02DC01ED91FC910190B4
:10247000F081E02D60E40995EE24E394F12CDD2455
:10248000D3948091B8029091B9020C171D0709F4FA
:102490004FC0B0E2EB16F104D8F00E94C70F809154
:1024A000B8029091B9022091BC02D0927E02209392
:1024B0007D0210927C0210927B02DC01ED91FC9176
:1024C0000190F081E02D60E40995EE24E394F12C75
:1024D0008091B8029091B9026991DC01ED91FC9173
:1024E0000190F081E02D0995BFEFEB1AFB0AC9CFEF
:1024F0008091B6029091B702892B31F08091D90278
:102500009091DA020E94D80EE091CA02F091CB02BB
:1025100090818091CF028095892380835CCF60E099
:102520008BE992E00E94631160919F02615068CF35
:102530000E94C70F8091B8029091B902892B09F4CB
:1025400061C02091D4023091D5024091D6025091C1
:10255000D70260E074E284EF90E00E94A01C20515A
:10256000310941095109569547953795279520938B
:10257000B800DF91CF911F910F91FF90EF90DF9006
:102580000895E091C802F091C90280819091CE0235
:10259000892B80830C171D0769F289912091B6025F
:1025A0003091B702232B19F00E94D10EF3CF28E00F
:1025B00030E040E8E091C402F091C5029091CC0275
:1025C000582F5423D9F05081952B9083E091C60267
:1025D000F091C70290815091CD02952B9083E091AC
:1025E000C602F091C70250819091CD02909595233B
:1025F0009083469521503109E9F6CCCF50819095D2
:102600009523E3CFE091CA02F091CB0280819091B3
:10261000CF02892B8083ADCF1F93CF93DF93EC0143
:10262000162F8D8D9E8D892BB1F12DA93EA94FA915
:1026300058AD60E074E284EF90E00E94A01C20514D
:1026400031094109510956954795379527952093AA
:10265000B80066EA111167EACE010E9463118D8D00
:102660009E8D892B41F129AD3AAD4BAD5CAD60E05B
:1026700074E284EF90E00E94A01C205131094109CE
:10268000510956954795379527952093B800DF91C6
:10269000CF911F9108958B8D9C8D892B21F08EAD4C
:1026A0009FAD0E94D80EEFA5F8A990818CA98095C6
:1026B00089238083CECFEFA5F8A980819CA9892B9F
:1026C0008083E5CF90E080E0089560E088E00E949C
:1026D0009A0560E089E00C949A05DC01ED91FD918A
:1026E0008081ED91FD919081ED91FD916C916370F0
:1026F0008E2309F064609F2309F06860EAE8F3E143
:10270000E60FF11D659565956D936D917D918D91A8
:102710009D91099423C01AC012C016C010C01EC0DB
:1027200009C014C013C006C019C009C00DC007C03D
:102730000DC014C062507040804090400BC061508A
:1027400070408040904006C06E5F01C06F5F7F4F59
:102750008F4F9F4F9E938E937E936E93089580919B
:102760007F02909180020C946D1380918102909170
:1027700082020C946D13FC0101900020E9F731975F
:10278000AF01481B590BBC018BE992E00C94530636
:102790008F929F92AF92BF920F931F93CF93DF932D
:1027A000CDB7DEB7A1970FB6F894DEBF0FBECDBF91
:1027B00019A2423008F44AE08E010F5D1F4F842EAB
:1027C000912CB12CA12CA50194010E94A01CE62FF4
:1027D000B901CA01EA30F4F4E05DD801EE938D014D
:1027E000232B242B252B79F790E080E0109719F00C
:1027F000CD010E94BB13A1960FB6F894DEBF0FBEA9
:10280000CDBFDF91CF911F910F91BF90AF909F905F
:102810008F900895E95CE1CF0C94BB132091A10245
:102820003091A202C901079697FD079623E095957E
:1028300087952A95E1F720919F023091A002829F0F
:10284000A001839F500D929F500D112470E060E015
:102850008091BA029091BB020C942B1E8F929F9292
:10286000AF92BF92EF92FF920F931F93CF93DF939C
:102870007C018B0149015A010E940E14CBE9D2E080
:1028800081E090E09B8B8A8B998B888B82E08C8B8C
:102890008D8B1D861C861F861E86C7010E940C1408
:1028A00081E08C8B8D8B1D861C8688E290E09F8753
:1028B0008E87C8010E940C140E94C511C501B40185
:1028C000DF91CF911F910F91FF90EF90BF90AF904C
:1028D0009F908F900C941E060E94261E85ED80937B
:1028E000BC008091E9019091EA01A091EB01B091C7
:1028F000EC010796A11DB11D23E0B695A79597950C
:1029000087952A95D1F72091BC0024FD03C0109231
:10291000320208954091E9015091EA016091EB0182
:102920007091EC01452B462B472B69F30097A105CD
:10293000B10541F02AE22A95F1F700C00197A109FB
:10294000B109E1CF8091E8010C94210F1F920F9201
:102950000FB60F9211242F933F938F939F93AF93B2
:10296000BF938091730290917402A0917502B0910F
:1029700076023091720223E0230F2D3758F501962D
:10298000A11DB11D20937202809373029093740273
:10299000A0937502B09376028091770290917802AD
:1029A000A0917902B0917A020196A11DB11D809388
:1029B000770290937802A0937902B0937A02BF9144
:1029C000AF919F918F913F912F910F900FBE0F90DC
:1029D0001F90189526E8230F0296A11DB11DD2CF96
:1029E0001F920F920FB60F9211242F933F934F9384
:1029F0005F936F937F938F939F93AF93BF93EF9367
:102A0000FF93E0910301F09104010995FF91EF918B
:102A1000BF91AF919F918F917F916F915F914F91F6
:102A20003F912F910F900FBE0F901F9018951F92FE
:102A30000F920FB60F9211242F933F934F935F93F2
:102A40006F937F938F939F93AF93BF93EF93FF9376
:102A5000E0910101F09102010995FF91EF91BF9181
:102A6000AF919F918F917F916F915F914F913F9126
:102A70002F910F900FBE0F901F9018951F920F92DD
:102A80000FB60F9211242F933F934F935F936F9341
:102A90007F938F939F93AF93BF93EF93FF93809117
:102AA000B900887F803609F44AC0F0F5883209F40D
:102AB000A7C018F5803109F49BC0B8F4882309F445
:102AC000F9C0883009F494C0FF91EF91BF91AF91A4
:102AD0009F918F917F916F915F914F913F912F9136
:102AE0000F900FBE0F901F901895883109F488C081
:102AF000803251F78093310214C0803409F49DC0B4
:102B000040F48033B9F38833F9F68093310285ECD1
:102B1000B0C0803509F485C0883509F496C0883482
:102B200099F60E946E14D0CF883909F48CC038F51C
:102B3000883729F050F4883611F0803729F683E081
:102B4000809332021092300257C0883809F47BC05B
:102B5000803919F0803809F0B7CF80913002803287
:102B600008F071C0E091300281E08E0F8093300256
:102B70008091BB00F0E0E05FFD4F80833DC0803B73
:102B800039F0E0F4803A09F479C0883A09F09CCF32
:102B900084E08093320210920F0210920E02E091B4
:102BA0005B02F0915C02099580910E0281110FC0C9
:102BB00081E080930E021092EE0109C0803C09F47E
:102BC000A6CF883C09F4A3CF883B09F07DCFE091E4
:102BD0000F0281E08E0F80930F02F0E0E251FE4F72
:102BE00080818093BB0090910F0280910E0229C0DA
:102BF000809157028093BB0085EC8093BC0064CF2A
:102C00009091560280915502981758F5E09156021E
:102C100081E08E0F80935602F0E0EB5CFD4F8081E7
:102C2000E9CFE091560281E08E0F809356028091A9
:102C3000BB00F0E0EB5CFD4F8083909156028091E9
:102C400055029817C8F285E8D8CFE091560281E086
:102C50008E0F809356028091BB00F0E0EB5CFD4F3D
:102C600080838091340281115CCF81E080933302B4
:102C700084EA8093BC001092320226CF85EC8093C8
:102C8000BC001092320280913002803230F4E09128
:102C90003002F0E0E05FFD4F10826091300270E0A2
:102CA000E0915902F0915A0280E192E00995109268
:102CB00030020ACF1092310234CFCF93DF931092BB
:102CC00092021092910288EE93E0A0E0B0E080932F
:102CD000930290939402A0939502B09396028FE092
:102CE00091E09093900280938F0210929E02109236
:102CF0009D0220E830E03093A00220939F0280E400
:102D000090E09093A2028093A1023093A4022093BA
:102D1000A3029093A6028093A5021092B102109292
:102D2000A8021092A7021092AA021092A90281E0B2
:102D30008093B0028093AF022FEF3FEF3093AE024B
:102D40002093AD023093AC022093AB028093B20289
:102D50001092B3021092B5021092B40281E291E097
:102D600090939C0280939B021092B7021092B6023D
:102D70008FE892E09093B9028093B8021092BB0260
:102D80001092BA028FEF8093BF028093C0028093AB
:102D9000C1028093C2028093C30280E89AE1A6E058
:102DA000B0E08093D0029093D102A093D202B0936E
:102DB000D30280EA96E8A1E0B0E08093D402909339
:102DC000D502A093D602B093D70280E58093D902B2
:102DD0001092DA0262E082E00E94C80562E083E0BD
:102DE0000E94C805E6E7FAE0E491F0E0EE0FFF1F6D
:102DF000E659F54FA591B491B0938402A093830254
:102E0000E8E5FAE0449140938702E7E7FAE0E491CD
:102E1000F0E0EE0FFF1FE659F54FC591D491D09326
:102E20008602C0938502E9E5FAE0E491E093880226
:102E300010928A0210928B0210928C0210928D02D4
:102E40002BE33FE1C9010197F1F79C91842F89237E
:102E500091E009F490E08881E82309F0926023E88A
:102E600032E0909389023093800220937F028FEAB0
:102E700093E19093020180930101809169008C7F1E
:102E8000816080936900E89A81E080938E0230939C
:102E900082022093810285EB93E190930401809359
:102EA000030180916900837F846080936900E99ABF
:102EB00082E080938E02DF91CF910895789484B55B
:102EC000826084BD84B5816084BD85B5826085BD26
:102ED00085B5816085BD80916E00816080936E00B4
:102EE00010928100809181008260809381008091A6
:102EF0008100816080938100809180008160809357
:102F000080008091B10084608093B1008091B00016
:102F100081608093B00080917A00846080937A0011
:102F200080917A00826080937A0080917A0081603B
:102F300080937A0080917A00806880937A00109262
:102F4000C10061E088E00E94C80561E089E00E945C
:102F5000C80562E084E00E94C8050E946513809164
:102F6000BA029091BB02892B51F52091A1023091B8
:102F7000A202C901079697FD0796B3E0959587953C
:102F8000BA95E1F720919F023091A002AC01429FD7
:102F9000C001439F900D529F900D11240E94011D6E
:102FA0009093BB028093BA02892B49F40E94651367
:102FB00064E670E080E090E00E941E06F9CF0E9477
:102FC0000E142091A1023091A20280919F02909153
:102FD000A002B901213231050CF4B4C0605471096A
:102FE00077FF02C06F5F7F4F759567958255910996
:102FF00097FD019600E410E022E530E04AE657E054
:10300000959587950E946C0B82E08093BD0280911C
:10301000B8029091B902892B09F4A7C08CE3809380
:10302000BC0210925E0210925D0210927C0210921D
:103030007B020E94030F80E596E090935C028093F0
:103040005B0281E596E090935A0280935902809149
:10305000C30287FD1EC061E00E94C80561E0809147
:10306000C3020E949A0561E070E080E090E00E9457
:103070001E0660E08091C3020E949A056AE070E03B
:1030800080E090E00E941E0661E08091C3020E94F1
:103090009A058091B8029091B902892B09F424C154
:1030A0002091D0023091D1024091D2025091D302AE
:1030B00060E074E284EF90E00E94A01C205131098E
:1030C0004109510956954795379527952093B800A2
:1030D00064E086E895E00E94AE106091A102615024
:1030E0008BE992E00E94631164E082E895E00E941F
:1030F000AE108091BD0264E1813009F460E18BE99A
:1031000092E00E94631164E08EE795E00E94AE10A9
:103110008FE88093D80280919F029091A00280381E
:10312000910509F0E8C18091A1029091A20280343A
:10313000910509F0F0C18091BD02813009F4EBC026
:103140008FECEAC06052710977FF02C06F5F7F4F5A
:10315000759567958357910997FD019600E210E0F8
:1031600023E730E04AE855E04BCF61E08091C102AF
:103170000E94C80561E08091C2020E94C80580914A
:10318000C102082E000C990BFC01EC58F54FE4919C
:10319000F0E0EE0FFF1FEC5CF54F2591349130937A
:1031A000C9022093C802FC01EA5AF54FE491E0936A
:1031B000CE028091C202082E000C990BFC01EC5843
:1031C000F54FE491F0E0EE0FFF1FEC5CF54FA59199
:1031D000B491B093CB02A093CA02FC01EA5AF54F16
:1031E000E491E093CF028C91E82BEC938091B602AE
:1031F0009091B702892B09F434C0CFB7F89480912D
:103200005802811127C0EEE7FAE08491E0E6FAE087
:103210009491E82FF0E0EE0FFF1FE65DF54FA591CA
:10322000B491EC91E92321F461E08AE00E949A05CF
:1032300061E08AE00E94C8058CB580618CBD8CB5C8
:1032400080648CBD61E08DE00E94C80561E08BE088
:103250000E94C805809158028F5F80935802CFBFAB
:10326000F6CE61E08091BF020E94C80561E08091C6
:10327000C0020E94C8058091BF02082E000C990B65
:10328000FC01EC58F54FE491F0E0EE0FFF1FEC5C11
:10329000F54F259134913093C5022093C402FC016F
:1032A000EA5AF54FE491E093CC028091C002082ED7
:1032B000000C990BFC01EC58F54FE491F0E0EE0F97
:1032C000FF1FEC5CF54FA591B491B093C702A0939A
:1032D000C602FC01EA5AF54FE491E093CD028C91CD
:1032E000E095E823EC93B3CE8091B6029091B702BB
:1032F000892B31F08091D9029091DA020E94D80E88
:10330000E091CA02F091CB0290818091CF0280952A
:1033100089238083DDCE8FE98093D802C2E16AEDF4
:103320008BE992E00E9463116C2F8BE992E00E947E
:10333000631161E88BE992E00E9463116091D80209
:103340008BE992E00E94631169ED8BE992E00E94A3
:1033500063118091BD0261EF813009F462E28BE973
:1033600092E00E94631166E088E795E00E94AE104B
:103370008091B8029091B902892B09F4E0C02091A4
:10338000D4023091D5024091D6025091D70260E02C
:1033900074E284EF90E00E94A01C205131094109A1
:1033A000510956954795379527952093B80062E0C7
:1033B0008BE992E00E9481060E940E1481E090E069
:1033C0009093AE028093AD029093AC028093AB02D7
:1033D00028EE33E040E050E06EE671E08DE491E0ED
:1033E0000E942E14F89484E090E0A0E0B0E0809376
:1033F0008A0290938B02A0938C02B0938D027894F2
:1034000001E010E094E0892E912CA12CB12C8FB713
:10341000F894C0907302D0907402E0907502F0901E
:1034200076028FBFE2E4FAE08491EAE5FAE0D49113
:10343000E8E7FAE0C491CC2309F48BC081110E9423
:103440007105EC2FF0E0EE0FFF1FE659F54FA59147
:10345000B4918C91D82331E020E009F430E0832F3F
:10346000922FC82FC17020910001222309F474C04B
:10347000892B09F03EC0C0926E02D0926F02E0929A
:103480007002F092710210926D0280916D028111B2
:1034900030C080916E0290916F02A0917002B09145
:1034A0007102A7019601281B390B4A0B5B0BDA014D
:1034B000C901883B9B40A105B105D8F081E080930C
:1034C0006D020E94651310926C02F89480928A0239
:1034D00090928B02A0928C02B0928D02789428E593
:1034E00032E040E050E065E571E087E891E00E945D
:1034F0002E14712C4FC08036910589F48091A10261
:103500009091A202409739F48091BD02813029F058
:103510008FEA8093D802C2E002CF80E1FACF8034F4
:103520009105C9F78091A1029091A202809799F725
:103530008091BD02813009F003CE80E1EDCEE091B3
:10354000CA02F091CB0280819091CF02892B8083B7
:103550002ECF90E080E085CF892B09F496CF809123
:103560006D028111C6CF80916E0290916F02A09181
:103570007002B0917102A7019601281B390B4A0B0A
:103580005B0BDA01C901772473944F97A105B1054C
:1035900008F4AFCFC093000180916C028111CAC0C2
:1035A00080918E02823008F0AEC0F89483E892E0F9
:1035B0000E946D1360918A0270918B0280918C023F
:1035C00090918D02789424E030E040E050E00E9439
:1035D000C21CE9011C161D060CF497C0F8948092D9
:1035E0008A0290928B02A0928C02B0928D02789403
:1035F000C1E0D0E00E940E141093AE020093AD0221
:103600001093AC020093AB021092A8021092A70292
:103610001092AA021092A90282E08093AF028093D6
:10362000B00284E691E00E940C141E01DD0F4408F4
:1036300055084AE0C201B1010E94C8138AE691E030
:103640000E94BB138CE691E00E94BB13C1E0C093C3
:10365000AF02C093B0021092A8021092A70288E2B3
:1036600090E09093AA028093A9028FE691E00E94D5
:103670000C141092A8021092A70284E390E0909399
:10368000AA028093A9028AE791E00E940C140E948A
:10369000C511772081F1A0E6BAEEA20191010E9446
:1036A000E11C609368027093690280936A029093B0
:1036B0006B02C0926402D0926502E0926602F092C0
:1036C0006702C0926002D0926102E0926202F092C0
:1036D000630210925F0260E088E00E949A0561E058
:1036E00089E00E949A05C0936C0268EC70E080E06B
:1036F00090E00E941E0680E090E0892B09F487CEBE
:103700000E94000084CEF89455CF2F3131050CF47F
:1037100071CFF89488E790E0A0E0B0E080938A024F
:1037200090938B02A0938C02B0938D027894CEE19B
:10373000D0E060CF8091600290916102A09162021E
:10374000B0916302A7019601281B390B4A0B5B0B52
:10375000DA01C90180339547A105B105A8F0C091F0
:103760005F0261E06C2760935F0288E00E949A0527
:103770006C2F89E00E949A05C0926002D09261028B
:10378000E0926202F092630280916402909165027D
:10379000A0916602B091670226013701481A590AC2
:1037A0006A0A7B0A8091680290916902A0916A027C
:1037B000B0916B02481659066A067B0608F096C05F
:1037C000BC01CD01641975098609970928EE33E01B
:1037D00040E050E00E94A01CC9016CE370E00E9430
:1037E0008C1C7B01EC010E940E141093AE0200931E
:1037F000AD021093AC020093AB0282E08093AF0263
:103800008093B0021092A8021092A7021092AA020E
:103810001092A9028CE891E00E940C141092A80268
:103820001092A70244E150E05093AA024093A902EB
:103830005AE0E516F10418F480E30E948D09B701FF
:1038400090E080E04AE00E94C8138AE30E948D095C
:10385000CA30D10518F480E30E948D09BE0190E0C2
:1038600080E04AE00E94C81381E08093AF02809319
:10387000B0021092A8021092A70282E390E0909307
:10388000AA028093A90282E991E00E940C1480911F
:103890005F0281112FC08BE491E00E940C1489E932
:1038A00091E00E940C140E94C511809168029091D1
:1038B0006902A0916A02B0916B02481659066A0625
:1038C0007B0608F418CF0E94651310926C02F894DE
:1038D00080928A0290928B02A0928C02B0928D020A
:1038E000789468E572E080E090E003CF60E070E0FB
:1038F000CB016CCF89E491E0D0CF81E291E090934D
:103900009C0280939B028091BA029091BB02009727
:1039100011F00C949D1D0895AA1BBB1B51E107C01B
:10392000AA1FBB1FA617B70710F0A61BB70B881F4F
:10393000991F5A95A9F780959095BC01CD010895DE
:10394000A1E21A2EAA1BBB1BFD010DC0AA1FBB1FA3
:10395000EE1FFF1FA217B307E407F50720F0A21B15
:10396000B30BE40BF50B661F771F881F991F1A9482
:1039700069F760957095809590959B01AC01BD01AC
:10398000CF010895052E97FB1EF400940E94D91CC8
:1039900057FD07D00E94A01C07FC03D04EF40C94E6
:1039A000D91C50954095309521953F4F4F4F5F4F13
:1039B000089590958095709561957F4F8F4F9F4F9B
:1039C00008950E94F21CA59F900DB49F900DA49F96
:1039D000800D911D11240895EE0FFF1F0590F491A5
:1039E000E02D0994A29FB001B39FC001A39F700D69
:1039F000811D1124911DB29F700D811D1124911DF7
:103A000008950F931F93CF93DF938230910510F4A5
:103A100082E090E0E091DD02F091DE0230E020E013
:103A2000B0E0A0E0309799F42115310509F44AC0BF
:103A3000281B390B24303105D8F58A819B8161150B
:103A4000710589F1FB0193838283FE0111C04081DE
:103A500051810281138148175907E0F0481759072F
:103A600099F4109761F012960C93129713961C9389
:103A70003296CF01DF91CF911F910F91089500935E
:103A8000DD021093DE02F4CF2115310551F042170B
:103A9000530738F0A901DB019A01BD01DF01F801EC
:103AA000C1CFEF01F9CF9093DE028093DD02CDCF3D
:103AB000FE01E20FF31F8193919322503109398364
:103AC0002883D7CF2091DB023091DC02232B41F4F5
:103AD00020910701309108013093DC022093DB0232
:103AE00020910501309106012115310541F42DB7D2
:103AF0003EB74091090150910A01241B350BE0911A
:103B0000DB02F091DC02E217F307A0F42E1B3F0B5F
:103B10002817390778F0AC014E5F5F4F241735073F
:103B200048F04E0F5F1F5093DC024093DB028193FD
:103B300091939FCFF0E0E0E09CCFCF93DF9300978D
:103B4000E9F0FC01329713821282A091DD02B0915C
:103B5000DE02ED0130E020E01097A1F420813181F8
:103B6000820F931F2091DB023091DC022817390766
:103B700009F061C0F093DC02E093DB02DF91CF91AA
:103B80000895EA01CE17DF07E8F54A815B819E01BF
:103B900041155105B1F7E901FB83EA834991599138
:103BA000C40FD51FEC17FD0761F480819181029647
:103BB000840F951FE90199838883828193819B8378
:103BC0008A83F0E0E0E012968D919C911397009724
:103BD000B9F52D913C911197CD010296820F931F5B
:103BE0002091DB023091DC022817390739F6309733
:103BF00051F51092DE021092DD02B093DC02A09328
:103C0000DB02BCCFD383C28340815181840F951FD7
:103C1000C817D90761F44E5F5F4F88819981480FBB
:103C2000591F518340838A819B819383828321150D
:103C3000310509F0B0CFF093DE02E093DD029ECFB4
:103C4000FD01DC01C0CF13821282D7CF81E090E06A
:103C5000F8940C94321EDC0101C06D934150504029
:103C6000E0F7089515E0C5E4D5E004C0FE010E9428
:0E3C7000EC1C2196C634D107C9F7F894FFCF9B
:103C7E0001520652060000DF02800000000000988C
:103C8E000F6B0F62137005640F510F420F0000008F
:103C9E0000BB0853066213DB0E210E7005650B3D4B
:103CAE000B590B4D0BCD0B700581060C13910DDAD4
:103CBE000D860A690AF109920942004100496E69AE
:103CCE00742E2E2E005265736574206E6120312085
:103CDE006D696E004361733A20006D000D0A004B52
:103CEE006C696B3D53746172740044727A20337345
:103CFE003D52657365742F53544F50005A6F737451
:103D0E003A00536D65723A2000202064727A203397
:083D1E00733D53544F500000A7
:00000001FF
